:10000000004000202D5000006950000069500000A1
:1000100069500000695000006950000000000000B5
:100020000000000000000000000000006950000017
:100030006950000000000000695000006950000095
:10004000A5250000D94F0000E74F0000F54F000044
:100050000550000069500000851E0000391E000098
:10006000DD2200008511000095110000693D0000AF
:10007000773D0000890A0000DD460000613800007D
:100080009138000069500000851A00008D030000BF
:10009000793900009939000069500000695000006A
:1000A000A9380000C93800001139000031390000BA
:1000B000FD490000254A0000695000006950000019
:1000C000695000006950000069500000F50B000005
:1000D000695000006950000069500000695000003C
:1000E000853D0000951D000079380000311D00009D
:1000F00069500000695000006950000000000000D5
:1001000000000000000000000000000000000000EF
:1001100000000000000000000000000000000000DF
:1001200069500000695000006950000069500000EB
:1001300069500000695000006950000069500000DB
:10018000FFFFFFFFFFFFFFFFFFFFFFFFFFFFFFFF7F
:1001900003329CA77F000000FFFFFFFFFFFFFFFF70
:1001A00010B5054C237833B9044B13B10448AFF3B1
:1001B00000800123237010BD001404200000000003
:1001C000640A020008B5034B1BB103490348AFF3AF
:1001D000008008BD0000000004140420640A02002E
:1001E000154B002B08BF134B9D46A3F5803A002109
:1001F0008B460F461348144A121A15F045FF0F4B51
:10020000002B00D098470E4B002B00D098470020C1
:10021000002104000D000D48002802D00C4819F000
:10022000BDFF15F03DFB2000290004F0D7FF15F0BD
:1002300027FB00BF00000800004000200000000075
:100240000000000000140420601E04209DA1010095
:1002500001B1010080B483B000AF0346FB7197F990
:100260000730002B0BDBFB7903F01F02064997F9DF
:1002700007305B09012000FA02F241F8232000BF99
:100280000C37BD4680BC704700E100E080B584B00B
:1002900000AF0023FB60EFF310837B607B68FB60A3
:1002A00072B61B4B1B7883F00103DBB2002B26D008
:1002B000174B01221A70174B5B68164A43F0010373
:1002C0005360154A134B9A601320FFF7C3FF6FF07A
:1002D0007843BB600F4ABB6813620E4ABB68D362A7
:1002E0000C4ABB6853630B4ABB68D363094ABB68BB
:1002F0009364084ABB68D364064ABB681365FB680D
:100300003B603B6883F3108800BF1037BD4680BD5B
:10031000001C0420000001400018042080B489B0B3
:1003200000AF0346B9607A60FB730023FB77164A7F
:10033000FB7BDB0013440433BB61BB69BA681A6002
:10034000BB697A685A60FB7B012202FA03F37B6186
:10035000BB68002B08D00C4BD3F8DC200A497B6922
:100360001343C1F8DC3008E0074BD3F8DC207B698D
:10037000DB4305491340C1F8DC30FB7F18462437C6
:10038000BD4680BC704700BF001C042080B58AB009
:1003900000AF2C4BDB6CFB612A4B9B6CBB61294B88
:1003A0001B6D7B61284BD3F8DC20B9697B690B435B
:1003B00013407B627B6A002B37D020233B617B6A32
:1003C000B3FA83F33B622CE03A693B6AD31A013BF0
:1003D000FB600122FB6802FA03F3BB601A4AFB6868
:1003E000DB00134404337B607B681B68002B0FD059
:1003F000BA69BB681340002B01D0012300E002233F
:100400003B607B681B687A685068002239689847AF
:10041000BB68DB437A6A13407B627B6AB3FA83F37F
:100420003B623A6A3B699A42CED3064ABB699364FF
:10043000044A7B691365034AFB69D36400BF28370C
:10044000BD4680BD00000140001C042080B483B084
:1004500000AF0346FB7197F90730002B0BDBFB79EC
:1004600003F01F02064997F907305B09012000FAE3
:1004700002F241F8232000BF0C37BD4680BC704714
:1004800000E100E080B483B000AF0346FB7197F950
:100490000730002B10DBFB7903F01F02094997F9A5
:1004A00007305B09012000FA02F2203341F82320D3
:1004B000BFF34F8FBFF36F8F00BF0C37BD4680BCBB
:1004C000704700BF00E100E080B483B000AF786007
:1004D000396000BF7B681B681A683B681340002BBB
:1004E000F8D100BF0C37BD4680BC704780B586B0E0
:1004F00000AFF860B9607A60FB687B61BB68012B74
:1005000002D0022B04D007E07B6906221A7707E0AD
:100510007B6907221A7703E07B6909221A7700BFFB
:100520007B692C33184601F07FFD7B699B68002BAB
:1005300009D07B699B687A69D0687A69127FD2B2E8
:1005400011460022984700BF1837BD4680BD000005
:1005500080B586B000AFF860B9607A603B60002378
:100560007B613B6800221A60444AFB681B0113440C
:100570000C33BA681A607A680021B86815F084FDF7
:10058000BB687B61FB681B013C4A1A447B695A606B
:100590003A4AFB681B0113441A687B691A607B693D
:1005A0005968FA6813465B001344DB00344A13446D
:1005B0008B607B690022DA627B691B68314A1A62B0
:1005C0007B695B689A687B691B6812685A607B6903
:1005D0005B689A687B691B6852685A637B695B68D1
:1005E0009A687B691B6892689A637B695B689A6802
:1005F0007B691B68D268DA637B695B689A687B6990
:100600001B6812691A647B695B689A687B691B685E
:1006100052695A647B691B681A6B7B691B6822F0FC
:1006200003021A637B691B6800221A623B687A69BD
:100630001A60FFF72BFE7B695B689B797A69124928
:100640001846FFF76BFE0346002B04D0786900F0D4
:100650001DF808230EE07B695B6893F904301846A7
:10066000FFF7F4FE7B695B6893F905301846FFF7E6
:10067000EDFE002318461837BD4680BD000004205B
:100680001000042065756C67ED04000080B584B02F
:1006900000AF78600023FB6013E0154AFB681B0184
:1006A00013440C331B687A689A4207D1104AFB68DE
:1006B0001B0113440C3300221A6005E0FB68013370
:1006C000FB60FB68002BE8D07B685B6893F9043023
:1006D0001846FFF7D7FE7B685B6893F9053018462C
:1006E000FFF7D0FE002318461037BD4680BD00BF7F
:1006F0000000042080B588B000AFF860B9607A606F
:100700003B600023FB77BB68BB6122E00321F868F4
:10071000FFF7DAFEFB681B68BA69D2029A6106210C
:10072000F86800F087F80346FB77FB682C3300225B
:100730001946002001F0DAFB0346FB75FB7D002B18
:1007400001D0112316E0FB7F002B07D1BB690133D9
:10075000BB61BA697B689A42D8D900E000BFFB68E8
:100760009A693B681A60FB689B69002B01D00A23D9
:1007700000E0FB7F18462037BD4680BD80B586B0BF
:1007800000AFF860B9607A600023FB75FB68002257
:100790005A74BB681A68FB681A62BB685A68FB68BF
:1007A0005A62BB689A68FB689A62BB681A7BFB68EE
:1007B0001A74F86800F01CF90346FB75FB682C33CB
:1007C00000221946002001F091FB0346BB75BB7D5A
:1007D000002B01D0112319E0FB681B7FDBB2002B3B
:1007E00003D0FB681B7FDBB210E0FB689A697B6873
:1007F0001A60FB689B69002B01D00A2306E0FB68A6
:100800009B6A002B01D0042300E0FB7D18461837BB
:10081000BD4680BD80B485B000AFF860B9607A6035
:10082000BB68DA0A7B681A60002318461437BD4695
:1008300080BC704780B582B000AF7860396003211A
:100840007868FFF741FE7B681B6804221A607B68AA
:100850001B685A687B681B6842F005025A607B6817
:100860001B68074A1A627B681B683A689A607B6853
:100870001B6800221A62002318460837BD4680BD57
:1008800065756C6780B483B000AF78607B689B6AE5
:10089000002B34D07B681B685A687B681B6842F069
:1008A00007025A607B681A6A7B681B68DA607B689B
:1008B0001B6A03F108027B681A627B685A6A7B68CC
:1008C0001B6812681A617B685B6A1A1D7B685A6232
:1008D0007B685A6A7B681B6812685A617B685B6A2E
:1008E0001A1D7B685A627B689B6AA3F108027B68C9
:1008F0009A627B681B6804229A60002300E00E2342
:1009000018460C37BD4680BC7047000080B485B0E7
:1009100000AF7860324B1B68FB607B689B6A002BE2
:1009200057D07B685B689B797B817B892D4A01214D
:1009300001FA03F3C2F814387B892A4A012101FA2B
:1009400003F3C2F81C387B89264A012101FA03F31C
:1009500093627B89234A012101FA03F353627B8965
:10096000204A012101FA03F353637B891B01FA68D2
:100970001344FB607B685B6A1A467B689B6A13447E
:100980001A1FFB681A607B681B6814331A46FB68E1
:100990005A607B681A6A7B681B68DA607B689B6AAE
:1009A0009B08013B1A01104B1343FA6893607B6864
:1009B0001B680E4A1A627B681B681A6B7B681B688F
:1009C00042F003021A637B681B6800221A6200234C
:1009D00000E00E2318461437BD4680BC704700BFA8
:1009E00034CD010000000140014000CA65756C670C
:1009F00080B584B000AF78600023FB737B685B7FB9
:100A0000DBB2002B01D0052338E001217868FFF725
:100A10005BFD7B6800229A617B6800221A777B6805
:100A200001225A777B681B685A687B681B6822F032
:100A300007025A607B681B683C221A607B681B684F
:100A4000104A1A627B681B681A6B7B681B6822F06D
:100A500003021A637B681B6800221A627B681B7C96
:100A6000002B05D07868FFF751FF0346FB7304E0C5
:100A70007868FFF707FF0346FB73FB7B18461037C8
:100A8000BD4680BD65756C6780B582B000AF002340
:100A9000FB710023BB71544BDB683B603B681B68F8
:100AA0001A683B685A613B681B683A6852691A6069
:100AB0003B685A694D4B13403A6893613B689B69A8
:100AC000002B01D00123BB71BB7983F00103DBB2A2
:100AD000002B45D03B685B6903F00803002B36D040
:100AE0003B689B6A002B2BD03B681A6A3B681B68EB
:100AF000DA603B681B6A03F108023B681A623B68D4
:100B00005A6A3B681B6812681A613B685B6A1A1D67
:100B10003B685A623B685A6A3B681B6812685A61B4
:100B20003B685B6A1A1D3B685A623B689B6AA3F18B
:100B300008023B689A623B681B6804229A6011E0D5
:100B400001213868FFF7C0FC0123FB710AE03B6814
:100B50005B6903F00403002B04D00123FB7101E067
:100B60000123FB71FB79002B39D03B681B685A6865
:100B70003B681B6822F007025A603B681B681C4AEE
:100B80001A623B681B681A6B3B681B6822F0030201
:100B90001A633B681B6800221A623B6800225A777E
:100BA0003B689B68002B15D0BB7983F00103DBB257
:100BB000002B07D03B689B683A68D0680022002170
:100BC000984707E03B689B683A68D0683A68926942
:100BD000012198473B682C33184601F025FA00BFE5
:100BE0000837BD4680BD00BF00000420F0AF0138CB
:100BF00065756C6780B582B000AF314BDB687B6098
:100C00007B681B681A687B685A617B681B687A6816
:100C100052691A607B685A692A4B13407A6893615B
:100C20007B681B68284A1A627B681B681A6B7B68A2
:100C30001B6822F003021A637B681B6800221A6299
:100C40007B6800229A627B6800225A777B689B68E7
:100C5000002B2CD07B689B69002B0CD17B681B7F01
:100C6000DBB2002B07D17B689B687A68D0680022D2
:100C7000002198471BE07B689B69002B08D17B68AB
:100C80009B687A68D0687A689269012198470EE07B
:100C90007B681B7FDBB2002B09D17B689B687A687D
:100CA000D0687A68127FD2B21146002298477B68DA
:100CB0002C33184601F0B8F900BF0837BD4680BD97
:100CC00000000420F0AF013865756C6780B483B014
:100CD00000AF0346FB7197F90730002B0BDBFB7964
:100CE00003F01F02064997F907305B09012000FA5B
:100CF00002F241F8232000BF0C37BD4680BC70478C
:100D000000E100E080B483B000AF0346FB7197F9C7
:100D10000730002B10DBFB7903F01F02094997F91C
:100D200007305B09012000FA02F2203341F823204A
:100D3000BFF34F8FBFF36F8F00BF0C37BD4680BC32
:100D4000704700BF00E100E080B584B000AF78607C
:100D50003960144BDB68002B1ED1124A7B68D360CC
:100D60000023FB600FE00F4BDB68FA68002143F8BB
:100D700032100C4BDA68FB68DB00134400225A6027
:100D8000FB680133FB60FB68012BECD90920FFF7FE
:100D90009DFF0A20FFF79AFF002318461037BD4633
:100DA00080BD00BF2800042080B500AF0920FFF7F8
:100DB000A9FF0A20FFF7A6FF024B0022DA600023FA
:100DC000184680BD2800042080B487B000AF0346D9
:100DD000FB710B46BB711346BB8000237B61FB7923
:100DE000114A52F823303B61EFF31083FB60FB683C
:100DF0007B6172B6BB79092B02D00A2B04D007E0C5
:100E00003B69BA881A8503E03B69BA889A8500BFB6
:100E10007B69BB60BB6883F31088002318461C37CE
:100E2000BD4680BC704700BF2800042080B485B058
:100E300000AF03463A60FB710B46BB710023FB8198
:100E4000FB790D4A52F82330BB60BB79092B02D0E5
:100E50000A2B04D007E0BB681B8DFB8103E0BB6855
:100E60009B8DFB8100BF3B68FA891A8000231846DE
:100E70001437BD4680BC70472800042080B485B07C
:100E800000AF03460A46FB711346BB80FB79064A56
:100E900052F82330FB60FB68BA889A840023184616
:100EA0001437BD4680BC70472800042080B485B04C
:100EB00000AF03463960FB71FB79074A52F82330D3
:100EC000FB60FB689B8C9AB23B681A800023184633
:100ED0001437BD4680BC70472800042080B487B01A
:100EE00000AF0346FB710B46BB801346BB7100236A
:100EF0007B61FB79154A52F823303B61EFF3108395
:100F0000FB60FB687B6172B6BB79002B08D03B6944
:100F10009B889AB2BB8813439AB23B699A8009E0D6
:100F20003B699B889AB2BB88DB439BB213409AB261
:100F30003B699A807B69BB60BB6883F310880023A0
:100F400018461C37BD4680BC704700BF28000420EF
:100F500080B487B000AF0346FB710B46BB801346DD
:100F6000BB7100237B61FB79154A52F823303B614A
:100F7000EFF31083FB60FB687B6172B6BB79002BDB
:100F800008D03B699B899AB2BB8813439AB23B69EC
:100F90009A8109E03B699B899AB2BB88DB439BB28B
:100FA00013409AB23B699A817B69BB60BB6883F34B
:100FB0001088002318461C37BD4680BC704700BF10
:100FC0002800042080B487B000AF0346FB710B46B5
:100FD000BB801346BB7100237B61FB79154A52F835
:100FE00023303B61EFF31083FB60FB687B6172B6DB
:100FF000BB79002B08D03B699B8E9AB2BB88134308
:101000009AB23B699A8609E03B699B8E9AB2BB888B
:10101000DB439BB213409AB23B699A867B69BB6003
:10102000BB6883F31088002318461C37BD4680BC7C
:10103000704700BF2800042080B485B000AF03468D
:101040000A46FB711346BB80FB79064A52F82330EF
:10105000FB60FB68BA881A83002318461437BD4624
:1010600080BC70472800042080B485B000AF0346E0
:101070000A46FB711346BB80FB79064A52F82330BF
:10108000FB60FB68BA889A83002318461437BD4674
:1010900080BC70472800042080B489B000AF0346AC
:1010A000B9607A60FB730023FB830023BB61FB7B89
:1010B0009BB2093BFB83EFF310833B613B69BB6150
:1010C00072B60C4BDB68FA8BB96843F83210094BE7
:1010D000DA68FB8BDB0013447A685A60BB697B617A
:1010E0007B6983F31088002318462437BD4680BCF3
:1010F000704700BF2800042080B586B000AF0346CB
:101100000A46FB711346BB711D4BDA68FB79DB00A5
:1011100013443B610023FB752BE0FB7D184A52F81A
:101120002330FB6097F90630092B03D1FB681B8D38
:10113000BB8202E0FB689B8DBB82FB681B8E9AB270
:10114000BB8A13409BB27B817A89FB681A863B6914
:101150001B68002B0AD07B89002B07D03B691B68DA
:101160003A695068F97D07F10A029847FB7D01331F
:10117000FB75FB7D022BD0D900BF1837BD4680BD63
:101180002800042080B500AF09210020FFF7B4FF3C
:1011900000BF80BD80B500AF0A210120FFF7ACFF82
:1011A00000BF80BD80B483B000AF0346FB7197F9E8
:1011B0000730002B0BDBFB7903F01F02064997F980
:1011C00007305B09012000FA02F241F8232000BF3A
:1011D0000C37BD4680BC704700E100E080B483B0AE
:1011E00000AF0346FB7197F90730002B10DBFB794A
:1011F00003F01F02094997F907305B09012000FA43
:1012000002F2203341F82320BFF34F8FBFF36F8FDB
:1012100000BF0C37BD4680BC704700BF00E100E056
:1012200080B588B000AFF860B9607A603B60BB6899
:10123000FB61234BBB61BB691B689B8C9BB2B3F505
:10124000217F05D11F4B1B681E4A43F030031360FA
:101250003B6800221A601C4AFB681B0113440C33D4
:10126000BA681A607A680021B86814F00DFFFB684C
:101270001B01154A1A44FB695A60134AFB681B019B
:10128000134404331A68FB691A60FB695968FA68E9
:1012900013465B0013449B000C4A13448B60FB69AC
:1012A0000022DA62F86900F05BFA0346FB753B68DE
:1012B000FA691A60002318462037BD4680BD00BF7A
:1012C0005400042034000240380004204800042068
:1012D00080B584B000AF7860786800F041FA0346CA
:1012E000FB737B685B680022DA60002318461037C6
:1012F000BD4680BD80B586B000AFF860B9607A6049
:10130000FB6800221A74B968F86800F0D9F8FB6825
:1013100093F82A30002B19D1FB682C330022194690
:10132000002000F0E3FD0346FB75FB7D002B01D0A0
:101330000D231DE000BF104B1B881A46FB681B687D
:101340009B889BB203F488639A42F4D1FB6893F8BC
:101350002B301A467B681A60FB6893F82B30002B01
:1013600003D0FB68082283F82A20FB6893F82A3010
:1013700018461837BD4680BDE01C042080B586B0F5
:1013800000AF7860396007F108031946002000F0CB
:1013900051FC0346002B01D0042335E03B681C4A76
:1013A000934201D901232FE0BA683B68B2FBF3F303
:1013B0005B087B617B697B827B8A7A699A4201D078
:1013C000012321E07B8A073B3B827B8A013BFB8137
:1013D0003B8A1B023B820F4B1B881A463B8ADBB2BF
:1013E0009A4207D10B4B1B881A46FB8903F47F43B3
:1013F0009A4201D0012307E07B681B68398AFA8989
:101400000A4392B29A84002318461837BD4680BD1D
:10141000801A0600E01C042080B483B000AF78601E
:101420000B467B80094B1B8819467A884FF68073E0
:101430001340994201D00B2303E07B687A889A819C
:10144000002318460C37BD4680BC7047E01C0420C2
:1014500080B58AB000AFF860B9603B601346FB719D
:10146000FB689B89FB84FB6800229A8100237B61D7
:1014700000233B83BB68FB61FB799BB23B84002369
:1014800087F82230002387F8233007F114033A68E5
:101490001946F868FFF72EFF034687F82530FB68EA
:1014A000FA8C9A8197F82530002B02D097F82530D6
:1014B00002E0FB6893F82A3018462837BD4680BD05
:1014C00080B582B000AF786039607B68002283F815
:1014D0002A207B68002283F82B2000BF2B4B1B881F
:1014E0001A467B681B689B889BB203F488639A4208
:1014F000F4D13B681A687B685A613B689A887B68BC
:101500001A833B68DA7B7B689A727B689B895B00F5
:101510009BB2DBB29AB27B68DA813B689B7B002B83
:1015200018D03B689A687B685A623B689A897B68E6
:101530001A857B680022DA617B6800221A847B6846
:10154000DB8943F001039AB27B68DA81786800F0A6
:1015500087F817E07B6800225A627B6800221A85B0
:101560003B689A687B68DA613B689A897B681A8471
:101570007B68DB8923F001039AB27B68DA817868A3
:1015800000F006F800BF0837BD4680BDE01C04200F
:1015900080B584B000AF78607B685B6893F90030F9
:1015A0001846FFF7FFFD7B681B681B889AB27B68B3
:1015B0001B6842F0210292B21A807B681B689B88EC
:1015C0009BB203F003039BB2C3F10203FB8116E05D
:1015D0007B685B691B78DAB27B681B6892B29A8180
:1015E0007B685B695A1C7B685A617B681B8B9BB26A
:1015F000013B9AB27B681A83FB89013BFB817B68C4
:101600001B8B9BB2002B1AD0FB89002BE0D116E07C
:101610007B68DB691B78DAB27B681B6892B29A81BF
:101620007B68DB695A1C7B68DA617B681B8C9BB228
:10163000013B9AB27B681A84FB89013BFB817B6882
:101640001B8C9BB2002B02D0FB89002BE0D17B6866
:101650001B687A68D2891A8300BF1037BD4680BDE7
:1016600080B584B000AF78607B685B6893F9003028
:101670001846FFF797FD7B681B681B889AB27B684A
:101680001B6842F0110292B21A807B681B8D9BB2DC
:10169000B3F5807F0DD97B681B684FF480721A8286
:1016A0007B681B8D9BB2A3F580739AB27B681A8509
:1016B0000AE07B681B8D9AB27B681B68013A92B284
:1016C0001A827B6800221A857B681B8B9BB2002BD9
:1016D0003CD07B681B681B889AB27B681B6842F011
:1016E000200292B21A807B681B689B889BB203F031
:1016F00003039BB2C3F10203FB8116E07B685B69C5
:101700001B78DAB27B681B6892B29A817B685B694E
:101710005A1C7B685A617B681B8B9BB2013B9AB257
:101720007B681A83FB89013BFB817B681B8B9BB227
:10173000002B02D0FB89002BE0D17B68DA897B6823
:101740001B6822F0010292B21A8304E07B681B68D6
:101750007A68D2891A8300BF1037BD4680BD000069
:1017600080B584B000AF78607B685B6893F9003027
:101770001846FFF733FD7B681B689B889BB2FB8193
:101780007B681B68FA8992B29A8004E07B681B68C8
:101790009B899BB2BB81234B1B881A467B681B68C5
:1017A000B3F84C309BB203F0C0039A42EED17B6891
:1017B0001B6800221A807B681B680122A3F8502056
:1017C0007B685B689A687B681B6812881A807B68F4
:1017D0005B689A687B681B6852889A847B685B6840
:1017E0009A687B681B689288A3F850207B685B68C6
:1017F0009A687B681B68D288A3F854207B685B6872
:101800009A687B681B681289A3F858207B685B681C
:101810009B685A897B689A81002318461037BD4619
:1018200080BD00BFE01C042080B485B000AF7860AC
:101830007B681B68B3F84C309BB21B119BB203F062
:1018400003039BB2C3F10203FB8116E07B685B6973
:101850001B78DAB27B681B6892B29A817B685B69FD
:101860005A1C7B685A617B681B8B9BB2013B9AB206
:101870007B681A83FB89013BFB817B681B8B9BB2D6
:10188000002B02D0FB89002BE0D17B681B8B9BB225
:10189000002B29D17B681B8D9BB2002B1CD07B6851
:1018A0001B687A68D2891A831EE07B68DB691B7823
:1018B000DAB27B681B6892B29A817B68DB695A1C3A
:1018C0007B68DA617B681B8C9BB2013B9AB27B68B8
:1018D0001A84FB89013BFB817B681B8C9BB2002B2C
:1018E00002D0FB89002BE0D17B681B8C9BB2002BC4
:1018F00003D17B681B6804229A8000BF1437BD4661
:1019000080BC704780B485B000AF78607B681B688E
:10191000B3F84C309BB29B119BB203F00303FB81E5
:1019200039E0FB89013BFB817B681B681B899AB20C
:101930007B685B6AD2B21A707B685B6A5A1C7B68F0
:101940005A627B681B689B8A9BB2002B23D17B6801
:101950001B8D9BB2B3F5807F0DD97B681B684FF45C
:1019600080721A827B681B8D9BB2A3F580739AB23A
:101970007B681A850FE07B681B8D9BB2002B0AD019
:101980007B681B8D9AB27B681B68013A92B21A82FF
:101990007B6800221A85FB89002BC2D100BF143757
:1019A000BD4680BC7047000080B582B000AF786053
:1019B00000BF0D4B1B881A467B681B689B889BB237
:1019C00003F488639A42F4D17B685B6893F9003032
:1019D0001846FFF703FC7B681B68044A12881A80CC
:1019E00000BF0837BD4680BDE01C0420480004202D
:1019F00080B483B000AF7860214B1B881A467B68A7
:101A00001B8903F010039A4208D07B6893F82B30AF
:101A100043F00103DAB27B6883F82B20184B1B8854
:101A20001A467B681B8903F080039A4208D07B68C2
:101A300093F82B3043F00203DAB27B6883F82B2053
:101A40000F4B1B881A467B681B8903F020039A42C0
:101A500008D07B6893F82B3043F00403DAB27B683C
:101A600083F82B207B6893F82B30002B03D17B6805
:101A7000082283F82B2000BF0C37BD4680BC70477E
:101A8000E01C042080B582B000AF0023FB712A4B1C
:101A9000DB683B603B681B689B889AB23B681A8195
:101AA0003B689B7A002B07D03B681B683A68D28959
:101AB0001A833B6800229A72204B1B881A463B68A7
:101AC0001B8903F004039A4202D03868FFF7ACFE8A
:101AD0001A4B1B881A463B681B8903F008039A427D
:101AE00002D03868FFF70EFF144B1B881A463B687C
:101AF0001B8903F0B0039A4204D03868FFF778FFDF
:101B00000123FB710D4B1B881A463B681B8903F4AC
:101B100080739A4204D03868FFF746FF0123FB71B7
:101B2000FB79002B04D03B682C33184600F07CFA7C
:101B300000BF0837BD4680BD38000420E01C0420EB
:101B400080B483B000AF0346FB7197F90730002BD8
:101B50000BDBFB7903F01F02064997F907305B099D
:101B6000012000FA02F241F8232000BF0C37BD46E5
:101B700080BC704700E100E080B500AF284B4CF618
:101B80001432DA60264B02221A61264B00221A60B8
:101B9000234B4CF61432DA60214B1B69204A43F088
:101BA0000203136100BF1E4B1B6903F40073002B7B
:101BB000F9D01D4B1B681C4A23F0030313601A4B1A
:101BC00000221A60184B194A5A60174B46F61A023F
:101BD000DA60154B1F225A61154B00221A60144B14
:101BE00000229A60124B00225A640D4B4CF61432BC
:101BF000DA600B4B1B690A4A23F0040313610620C9
:101C0000FFF79EFF0720FFF79BFF2920FFF798FFB4
:101C10002B20FFF795FF03F02BFA0023184680BD19
:101C200000C10440E41C042000C30440040410006C
:101C300000C0044080B584B000AF03463960FB713A
:101C400003F016FA134B1B68BB60FB79002B07D01F
:101C5000012B0CD1104B5B6803F03F03FB6008E0E5
:101C60000D4B5B681B0A03F03F03FB6001E004239C
:101C70000BE0FB68002B01D10123FB60BA68FB6815
:101C8000B2FBF3F23B681A60002318461037BD46DA
:101C900080BD00BF181D042000C3044080B588B07B
:101CA00000AF03460A46FB711346BB8000237B61ED
:101CB000FB79012B04D0022B0ED0002B05D012E0B3
:101CC0003F23FB61BB88BB610FE04FF47C53FB619A
:101CD000BB881B02BB6108E04FF47F03FB61BB883C
:101CE0001B04BB6101E004231CE0EFF31083BB6025
:101CF000BB687B6172B60D4B5B683B61FB69DB4384
:101D00003A6913403B613A69BB6913433B61074A37
:101D10003B6953607B69FB60FB6883F3108803F0C9
:101D2000A7F9002318462037BD4680BD00C30440F4
:101D300080B582B000AF144B9B6903F006037B6053
:101D4000124B1B68002B18D07B6803F00403002B98
:101D500007D00E4B1B680E4A1068002208219847D6
:101D60000BE07B6803F00203002B06D0074B1B68D7
:101D7000074A1068002207219847034A7B6893614D
:101D800000BF0837BD4680BD00C30440E41C0420EA
:101D9000E81C042080B582B000AF244B9B6903F49B
:101DA000CC433B6000237B60214B1B68002B33D06E
:101DB0003B68002B30D03B6803F48043002B04D0F9
:101DC0007B6843F004037B601CE03B6803F4005332
:101DD000002B04D07B6843F003037B6012E03B6878
:101DE00003F40073002B04D07B6843F005037B6091
:101DF00008E03B6803F48063002B03D07B6843F06A
:101E000006037B607B68002B06D0094B1B68094AE0
:101E100010680022796898473B68002B02D0034A7B
:101E20003B68936100BF0837BD4680BD00C30440D6
:101E3000E41C0420E81C042080B582B000AF0E4BE7
:101E40005B687B607B6803F00103002B10D00B4BB9
:101E50001B68002B06D0094B1B68094A106800223A
:101E600079689847044B5B68034A43F00103536069
:101E700000BF0837BD4680BD00C00440E41C0420FC
:101E8000E81C042080B582B000AF154B5B687B6016
:101E9000144B1B68002B17D07B6803F00403002B46
:101EA00006D0104B1B68104A10680022002198478A
:101EB0007B6803F00203002B06D00A4B1B680A4A1A
:101EC0001068002201219847054B5A687B6803F08F
:101ED0000603034913434B6000BF0837BD4680BD6E
:101EE00000C00440E41C0420E81C042080B48FB02F
:101EF00000AF03463960FB711346BB7100237B635F
:101F000000233B630023FB623B68002B05D17B6B06
:101F100043F002037B63404B3B60FB79032B1CD8EF
:101F200001A252F823F000BF3D1F0000391F00003E
:101F3000471F0000511F0000002367E03B6B43F088
:101F400006033B630BE07B6B43F004037B6306E01B
:101F50007B6B43F006037B6301E0062356E0EFF35F
:101F60001083BB61BB69FB6272B62C4B44F659020D
:101F7000DA602A4B9B6823F00302FB79274913435D
:101F80008B60274B1A697B6B1A433B6BDB432449FD
:101F900013400B61EFF31183FB61FB69BB62214BC3
:101FA0001B89FB84BB795B013B623B6A83F311882D
:101FB0000DE0BFF34F8F30BFFB6A3B613B6983F39A
:101FC0001088EFF310837B617B69FB6272B63B681C
:101FD0001B68002BEDD03B681B685A1E3B681A60DB
:101FE000BB6ABB60BB6883F311880E4AFB8C13810C
:101FF0000B4B1B690A4A23F002031361BFF34F8F97
:10200000FB6AFB60FB6883F31088002318463C37AB
:10201000BD4680BC704700BFEC1C042000C00440DB
:1020200000ED00E0002C004080B487B000AF786085
:1020300000237B617B68002B14D1104B7B60EFF396
:102040001083FB60FB687B6172B60D4B1B690C4A09
:1020500023F002031361BFF34F8F7B693B613B6940
:1020600083F310887B681B685A1C7B681A60002306
:1020700018461C37BD4680BC704700BFEC1C0420CE
:1020800000ED00E080B489B000AFF860B96013469D
:10209000FB71FB68BB6100BFBB691B681B899BB2FE
:1020A00003F08003002BF7D100BFBB691B689B8D39
:1020B0009BB203F48053002BF7D10023FB77724BC4
:1020C00000221A80714B00221A80714B00221A8064
:1020D000704B00221A80704B00221A8020E0BB68EF
:1020E00003F00103002B15D0FB7F6C4A52F833300C
:1020F0007B61FB7F694ADB0013449B887B827B69A1
:102100001A887B8A012101FA03F39BB213439AB226
:102110007B691A80BB685B08BB60FB7F0133FB7780
:10212000BB68002BDBD1FB79002B3DD0BB691B6862
:102130001B8899B2544B1A88BB691B680A4392B238
:102140001A80BB691B681B8D99B2504B1A88BB69FA
:102150001B680A4392B21A85BB691B68B3F85030FA
:1021600099B24B4B1A88BB691B680A4392B2A3F819
:102170005020BB691B68B3F8543099B2454B1A889C
:10218000BB691B680A4392B2A3F85420BB691B6861
:10219000B3F84C3099B2404B1A88BB691B680A43AC
:1021A00092B2A3F84C2055E0BB691B681B889BB218
:1021B0001AB2354B1B881BB2DB431BB213401AB259
:1021C000BB691B6892B21A80BB691B681B8D9BB2EE
:1021D0001AB22E4B1B881BB2DB431BB213401AB240
:1021E000BB691B6892B21A85BB691B68B3F8503093
:1021F0009BB21AB2264B1B881BB2DB431BB21340A7
:102200001AB2BB691B6892B2A3F85020BB691B6865
:10221000B3F854309BB21AB21E4B1B881BB2DB437F
:102220001BB213401AB2BB691B6892B2A3F85420C8
:10223000BB691B68B3F84C309BB21AB2164B1B88B3
:102240001BB2DB431BB213401AB2BB691B6892B2CC
:10225000A3F84C2000BFBB691B689B889BB203F0AE
:102260008003802BF7D100BFBB691B689B8D9BB29D
:1022700003F48043B3F5804FF6D10023184624378A
:10228000BD4680BC704700BFF01C0420F21C042037
:10229000F41C0420F61C0420F81C04207000042008
:1022A00080B487B000AFF860B9607A60FB687B618A
:1022B00000BF7B691B681B899BB203F08003002B66
:1022C000F7D17B69BA685A607B697A689A600023A3
:1022D00018461C37BD4680BC7047000080B586B0EC
:1022E00000AF00237B6100233B619B4B9B68FB603D
:1022F000FB681B681B889BB21A464FF60403134009
:102300003B61FB681B689B889BB203F07E037B816B
:102310007B89002B56D03B69002B53D03B6903F0DF
:102320001003002B08D07B8903F00403002B03D09B
:102330007B6943F002037B613B6903F00403002BDC
:1023400008D07B8903F00203002B03D07B6943F0A4
:1023500001037B613B6903F48053002B08D07B8928
:1023600003F00803002B03D07B6943F004037B6177
:102370003B6903F40043002B08D07B8903F0400342
:10238000002B03D07B6943F020037B613B6903F49E
:102390008043002B08D07B8903F02003002B03D05F
:1023A0007B6943F010037B613B6903F40053002B0E
:1023B00008D07B8903F01003002B03D07B6943F026
:1023C00008037B61FB681B681B8D9BB203F01F0336
:1023D0003B61FB681B689B8D9BB203F00F033B8145
:1023E0003B89002B3AD03B69002B37D03B6903F087
:1023F0000803002B08D03B8903F00803002B03D00F
:102400007B6943F400737B613B6903F00403002B99
:1024100008D03B8903F00403002B03D07B6943F40D
:1024200080737B613B6903F00203002B08D03B897A
:1024300003F00203002B03D07B6943F080037B6130
:102440003B6903F00103002B08D03B8903F0010333
:10245000002B03D07B6943F040037B61FB681B6862
:10246000B3F850309BB21A4641F6FE7313403B61FD
:10247000FB681B68B3F848309AB240F21D33134032
:10248000FB80FB88002B10D03B69002B0DD03B69F3
:1024900003F40073002B08D0FB8803F40073002BB7
:1024A00003D07B6943F400637B61FB681B68B3F86E
:1024B00050309BB21A464FF21C4313403B61FB88DD
:1024C000002B3AD03B69002B37D03B6903F48043A3
:1024D000002B08D0FB8803F01003002B03D07B698E
:1024E00043F480237B613B6903F40053002B08D045
:1024F000FB8803F00803002B03D07B6943F400330F
:102500007B613B6903F48053002B08D0FB8803F008
:102510000403002B03D07B6943F480337B613B6968
:1025200003F48063002B08D0FB8803F00103002B29
:1025300003D07B6943F400437B61FB685B68002B3D
:102540000CD07B69002B09D0FB685B68FA68906847
:1025500000227969984701E058000420FB681B6855
:102560009B8899B2FB681B687A890A4392B29A8069
:10257000FB681B689B8D99B2FB681B683A890A430C
:1025800092B29A85FB681B68B3F8483099B2FB6831
:102590001B68FA880A4392B2A3F8482000BF183794
:1025A000BD4680BD80B586B000AF00237B610023AF
:1025B0003B61A24B5B69FB60FB681B681B889BB29D
:1025C0001A464FF6040313403B61FB681B689B8867
:1025D0009BB203F07E037B817B89002B56D03B6945
:1025E000002B53D03B6903F01003002B08D07B89EC
:1025F00003F00403002B03D07B6943F002037B61EB
:102600003B6903F00403002B08D07B8903F002032D
:10261000002B03D07B6943F001037B613B6903F42A
:102620008053002B08D07B8903F00803002B03D0D4
:102630007B6943F004037B613B6903F40043002B97
:1026400008D07B8903F04003002B03D07B6943F063
:1026500020037B613B6903F48043002B08D07B8916
:1026600003F02003002B03D07B6943F010037B6150
:102670003B6903F40053002B08D07B8903F010035F
:10268000002B03D07B6943F008037B61FB681B6868
:102690001B8D9BB203F01F033B61FB681B689B8D86
:1026A0009BB203F01F033B813B89002B48D03B6961
:1026B000002B45D03B6903F01003002B08D03B8969
:1026C00003F01003002B03D07B6943F480637B612C
:1026D0003B6903F00803002B08D03B8903F0080393
:1026E000002B03D07B6943F400737B613B6903F0EB
:1026F0000403002B08D03B8903F00403002B03D014
:102700007B6943F480737B613B6903F00203002B18
:1027100008D03B8903F00203002B03D07B6943F010
:1027200080037B613B6903F00103002B08D03B89E8
:1027300003F00103002B03D07B6943F040037B616E
:10274000FB681B68B3F850309BB21A4641F6FE7323
:1027500013403B61FB681B68B3F848309AB240F203
:102760001D331340FB80FB88002B10D03B69002BEE
:102770000DD03B6903F40073002B08D0FB8803F4F1
:102780000073002B03D07B6943F400637B61FB681B
:102790001B68B3F84C309BB21A464FF21C431340EF
:1027A0003B61FB88002B3AD03B69002B37D03B695B
:1027B00003F48043002B08D0FB8803F01003002BA8
:1027C00003D07B6943F480237B613B6903F40053AE
:1027D000002B08D0FB8803F00803002B03D07B6993
:1027E00043F400337B613B6903F48053002B08D032
:1027F000FB8803F00403002B03D07B6943F4803390
:102800007B613B6903F48063002B08D0FB8803F0F5
:102810000103002B03D07B6943F400437B61FB6819
:102820005B68002B0CD07B69002B09D0FB685B68D0
:10283000FA68906800227969984701E058000420FE
:10284000FB681B689B8899B2FB681B687A890A43FE
:1028500092B29A80FB681B689B8D99B2FB681B68DB
:102860003A890A4392B29A85FB681B68B3F84830EC
:1028700099B2FB681B68FA880A4392B2A3F8482011
:1028800000BF1837BD4680BD80B483B000AF03469B
:10289000FB7197F90730002B0BDBFB7903F01F026C
:1028A000064997F907305B09012000FA02F241F866
:1028B000232000BF0C37BD4680BC704700E100E01C
:1028C00080B483B000AF0346FB7197F90730002B4B
:1028D00010DBFB7903F01F02094997F907305B0908
:1028E000012000FA02F2203341F82320BFF34F8F7A
:1028F000BFF36F8F00BF0C37BD4680BC704700BF71
:1029000000E100E080B586B000AFF860B9607A60A1
:102910003B60BB687B617A680021B86813F0B4FB48
:10292000FA6813469B0013449B002D4A1A447B69A6
:102930005A602B49FA6813469B0013449B000B44D2
:102940001033BA681A602649FA6813469B0013448C
:102950009B000B4408331A687B691A607B6900226C
:102960009A62FB689B001F4A13443B617B691B68AA
:102970003A6912881A827B691B683A6952889A817F
:102980003B687A691A607B691B681B8A9AB27B690B
:102990001B6842F0010292B21A82FDF777FC7B6954
:1029A0005B685B88DBB27A690F491846FDF7B6FCB5
:1029B0000346002B01D00E230EE07B695B68DB88A9
:1029C000DBB27A6909491846FDF7A8FC0346002BDB
:1029D00001D00E2300E0002318461837BD4680BD05
:1029E0000001042038CD0100EF3700007D370000E2
:1029F00080B584B000AF78600023FB737B685B68B0
:102A000093F90C301846FFF75BFF7B685B68002288
:102A10001A61FB7B18461037BD4680BD80B483B079
:102A200000AF78600B46FB70FB78002B0AD07B6808
:102A30001B681B8A9AB27B681B6842F4006292B2E0
:102A40001A8209E07B681B681B8A9AB27B681B6844
:102A500022F4006292B21A82002318460C37BD4657
:102A600080BC704780B487B000AF78600B46FB70C5
:102A700000237B61EFF310833B613B697B6172B69E
:102A8000FB78002B0AD07B681B681B8A9AB27B6894
:102A90001B6842F0020292B21A8219E07B681B683E
:102AA00000221A837B681B681B8A9AB27B681B68AA
:102AB00022F0020292B21A827B681B681B8A9BB2C8
:102AC0007A68126843F4207343F001039BB21382C7
:102AD0007B69FB60FB6883F31088002318461C3772
:102AE000BD4680BC704780B584B000AF7860396067
:102AF00007F1080319460020FFF79CF80346002B56
:102B000001D003231BE03B685A00BB689A4201D9FD
:102B10000C2314E0BA683B68B2FBF3F35B089BB28A
:102B2000013BFB81FA89FB8903F03F039A4201D004
:102B3000072304E07B681B68FA899A810023184602
:102B40001037BD4680BD80B586B000AF7860396073
:102B50007B681B689B899BB27B6107F10C0319465C
:102B60000020FFF767F80346FB74FB7C002B04D0C2
:102B70003B6800221A60012308E0FA687B69013390
:102B8000B2FBF3F35A083B681A6000231846183763
:102B9000BD4680BD80B483B000AF78600B46FB704B
:102BA000FB78002B0AD07B681B681B8A9AB27B6873
:102BB0001B6842F0080292B21A8209E07B681B6827
:102BC0001B8A9AB27B681B6822F0080292B21A82B2
:102BD000002318460C37BD4680BC704780B483B0D4
:102BE00000AF78600B46FB707B68FA7883F826208C
:102BF000002318460C37BD4680BC704780B483B0B4
:102C000000AF78600B46FB70FB78002B0AD07B6826
:102C10001B681B8A9AB27B681B6842F0040292B25E
:102C20001A8209E07B681B681B8A9AB27B681B6862
:102C300022F0040292B21A82002318460C37BD46D5
:102C400080BC704780B584B000AF786039607B6825
:102C5000012283F825203968786800F014F80346CB
:102C6000FB737B68002283F82520FB7B002B05D1BA
:102C70007B681B69002B01D00F23FB73FB7B18467D
:102C80001037BD4680BD80B584B000AF7860396034
:102C900000237B733B681A687B685A613B685A68FB
:102CA0007B689A613B681A897B689A833B685A897A
:102CB0007B68DA833B681A7B7B6883F820203B685B
:102CC0005A7B7B6883F821203B689A7B7B6883F87A
:102CD00023203B68DA7B7B6883F824207B68002212
:102CE00083F822207B6800221A617B681B681B8A9C
:102CF0009AB27B681B6822F4415292B21A827B68B6
:102D000093F82330002B19D07B68DB8B002B0AD083
:102D10007B681B689B8A9AB27B681B6822F400520E
:102D200092B29A8235E07B681B689B8A9AB27B6874
:102D30001B6842F4005292B29A822AE04FF4005388
:102D4000FB817B689B8B002B03D0FB8943F40073D2
:102D5000FB817B68DB8B002B03D0FB8943F4806312
:102D6000FB817B681B689B8A99B27B681B68FA8928
:102D70000A4392B29A827B68DB8B002B09D17B6875
:102D80001B681B8A9AB27B681B6842F0400292B2B1
:102D90001A827B681B681B889BB27B817B681B68DF
:102DA0007A8992B21A807B681B681B8A9AB27B6808
:102DB0001B6842F0020292B21A827B6893F82620C6
:102DC0007B681B6892B21A863968786800F018F838
:102DD0007B6893F82530002B0DD07B6828330022C8
:102DE00019460020FFF782F803463B733B7B002B1C
:102DF00001D00D2300E07B7B18461037BD4680BD17
:102E000080B588B000AF786039607B6893F8233074
:102E1000002B0CD07B6893F82430002B07D03B6844
:102E20005B89012B03D17B68002283F823207B6818
:102E30001B681B8A9AB27B681B6842F4405292B2AC
:102E40001A827B681B681B8A9AB27B681B6822F413
:102E5000405292B21A827B681B689B8B9AB27B6845
:102E60001B6822F0070292B29A830023BB837B681F
:102E700093F82330002B00F0B9800123BB833B681B
:102E80001B897B837B8B002B55D07B685B685B88C1
:102E9000FB827B685B681B885BB21846FFF7F4FC1B
:102EA000FB8A9A4A012101FA03F3C2F81438FB8A1B
:102EB000964A012101FA03F39362FB8A934A0121A6
:102EC00001FA03F35362FB8A904A012101FA03F3EA
:102ED00053637B8B03F00103002B02D07B8B013308
:102EE0007B833B681A687B8B023BD118884B1A683E
:102EF000FB8A1B0113440A461A607B681B6803F1B6
:102F00000801834B1A68FB8A1B0113440A465A6066
:102F10007B8B5B089BB2013B1B017D4A1168FA8ADF
:102F200012010A4443F0454343F001039360BB8B15
:102F300043F00203BB833B685B897B837B8B002B65
:102F400054D07B685B68DB88BB827B685B689B884E
:102F50005BB21846FFF798FCBB8A6C4A012101FA64
:102F600003F3C2F81C38BB8A684A012101FA03F353
:102F70009362BB8A654A012101FA03F35362BB8A5B
:102F8000624A012101FA03F353637B8B03F00103CF
:102F9000002B02D07B8B01337B837B681B68191D60
:102FA0005B4B1A68BB8A1B0113440A461A603B68D4
:102FB0005A687B8B023BD118554B1A68BB8A1B01A0
:102FC00013440A465A607B8B5B089BB2013B1B0192
:102FD0004F4A1168BA8A12010A4443F09A4343F0F7
:102FE00001039360BB8B43F00403BB837B681B68C6
:102FF00000229A847B6893F82430002B2DD07B68C4
:103000009B8B013B3B617B681B689B8C9AB27B6806
:103010001B6822F0F00292B29A847B681B689B8C3A
:103020009AB23B699BB29B009BB213439AB27B68F6
:103030001B6842F0010292B29A847B681B681B8A6B
:103040009AB27B681B6842F4006292B21A827B6873
:103050001B687A68D28B1A8328E07B68DB8B002B95
:103060000AD17B681B681B8A9AB27B681B6842F492
:10307000805292B21A820DE07B689B8B002B09D1A3
:103080007B681B681B8A9AB27B681B6842F40052FB
:1030900092B21A827B689A8B7B68DB8B934238BF33
:1030A0001346FB837B681B68FA8B1A837B6893F853
:1030B000233083F00103DBB2002B2BD07B685B69EC
:1030C000002B55D00023FB8317E07B685B691A78DF
:1030D0007B681B6892B21A817B685B697A6892F898
:1030E00020201A447B685A617B689B8B013B9AB213
:1030F0007B689A83FB8B0133FB83FB8B072B37D8D1
:103100007B689B8B002BE0D132E000BF00000140C8
:1031100034CD01007B681B689B8B99B27B681B6870
:10312000BA8B0A4392B29A837B6893F82330002BC0
:103130001ED03B681B89002B1AD000233B8312E072
:103140007B681B681B8C9BB27B817B899BB203F0E5
:103150000F039BB2C3F10803FB81FB89002B06D14F
:103160003B8B01333B833B8B632BE9D900E000BFF2
:103170007B681B681B8A9BB203F04003402B03D083
:103180007B681B689B88BB817B685B6893F90C300C
:103190001846FFF779FB00BF2037BD4680BD00BF52
:1031A00080B588B000AF786039600023FB617B6830
:1031B0001B681B8A9AB27B681B6842F4405292B229
:1031C0001A827B681B681B8A9AB27B681B6822F490
:1031D000405292B21A827B681B689B8B9AB27B68C2
:1031E0001B6822F0070292B29A837B68002283F860
:1031F00022203B681A687B685A613B685A687B6882
:103200009A613B681A897B689A833B685A897B6814
:10321000DA833B681A7B7B6883F820203B685A7B03
:103220007B6883F821203B689A7B7B6883F82320A6
:103230003B68DA7B7B6883F824207B6800221A6174
:103240007B681B681B8A9AB27B681B6822F46152F8
:1032500092B21A827B689B8B002B09D17B681B681A
:103260001B8A9AB27B681B6842F4005292B21A829F
:103270007B68DB8B002B1BD17B681B681B8A9AB297
:103280007B681B6842F4805292B21A827B6893F882
:10329000233083F00103DBB2002B09D07B681B686D
:1032A0001B8A9AB27B681B6842F0400292B21A8273
:1032B0007B68D98B7B689A8B7B681B688A4238BF96
:1032C0000A4692B21A8300237B837B6893F82330EB
:1032D000002B00F0B7803B681B893B833B8B002BA6
:1032E00055D07B685B685B88BB827B685B681B88AA
:1032F0005BB21846FFF7C8FABB8A9B4A012101FA64
:1033000003F3C2F81438BB8A974A012101FA03F388
:103310009362BB8A944A012101FA03F35362BB8A88
:10332000914A012101FA03F353633B8B03F001033C
:10333000002B02D03B8B01333B833B681A683B8BED
:10334000023BD118894B1A68BB8A1B0113440A46F9
:103350001A607B681B6803F10801844B1A68BB8AFA
:103360001B0113440A465A603B8B5B089BB2013B2E
:103370001B017E4A1168BA8A12010A4443F0454390
:1033800043F0010393607B8B43F002037B833B6834
:103390005B893B833B8B002B54D07B685B68DB886D
:1033A0007B827B685B689B885BB21846FFF76CFA90
:1033B0007B8A6D4A012101FA03F3C2F81C387B8A2B
:1033C000694A012101FA03F393627B8A664A01216B
:1033D00001FA03F353627B8A634A012101FA03F382
:1033E00053633B8B03F00103002B02D03B8B013373
:1033F0003B837B681B68191D5C4B1A687B8A1B0129
:1034000013440A461A603B685A683B8B023BD1184A
:10341000564B1A687B8A1B0113440A465A603B8B41
:103420005B089BB2013B1B01504A11687A8A12016A
:103430000A4443F09A4343F0010393607B8B43F0CB
:1034400004037B837B681B689B8A9AB27B681B683A
:1034500022F4005292B29A827B6893F8233083F070
:103460000103DBB2002B46D07B681B681B8A9AB233
:103470007B681B6822F4006292B21A820023FB82EE
:103480007B689B8B002B03D0FB8A43F40073FB8289
:103490007B68DB8B002B03D0FB8A43F48063FB82C9
:1034A0007B681B689B8A99B27B681B68FA8A0A430F
:1034B00092B29A8217E07B685B691A787B681B6816
:1034C00092B21A817B685B697A6892F820201A446C
:1034D0007B685A617B689B8B013B9AB27B689A83BD
:1034E000FB690133FB61FB69072B11D87B689B8B60
:1034F000002BE0D10CE07B681B689B8B9AB27B8B26
:1035000013439AB27B681B6842F0010292B29A831D
:103510007B681B681B8A9BB203F04003402B04D0DE
:103520007B681B689B889BB2FB817B685B6893F917
:103530000C301846FFF7A8F97B6893F82530002B6C
:103540000DD07B682833002219460020FEF7CEFC00
:1035500003467B747B7C002B01D0092300E0002311
:1035600018462037BD4680BD0000014034CD010023
:1035700080B584B000AF786039607B68012283F841
:10358000252039687868FFF70BFE0346FB737B68DC
:10359000002283F82520FB7B002B05D17B681B696B
:1035A000002B01D00F23FB73FB7B18461037BD4661
:1035B00080BD80B586B000AF78600023FB747B6867
:1035C0001B681B883B827B681B683A8A1A807B6871
:1035D0001B681B8CFB813B8A03F090039BB2002B82
:1035E0001AD03B8A03F010039BB2002B05D07B68F6
:1035F0001B6943F001027B681A613B8A03F0800378
:103600009BB2002B05D07B681B6943F002027B68EC
:103610001A610123FB7459E0FB8903F00F039BB28D
:10362000C3F10803FB82FB891B0A9BB203F00F0363
:10363000BB8217E07B685B691A787B681B6892B273
:103640001A817B685B697A6892F820201A447B684B
:103650005A617B689B8B013B9AB27B689A83FB8A99
:10366000013BFB82FB8A002B03D07B689B8B002BEA
:10367000E0D17B6893F8243083F00103DBB2002BA8
:103680001DD17B689B8B002B20D118E07B681B68C9
:103690009B889AB27B689B69D2B21A707B689B69DF
:1036A0007A6892F821201A447B689A617B68DB8BE8
:1036B000013B9AB27B68DA83BB8A013BBB82BB8A3F
:1036C000002B03D07B68DB8B002BDFD17B68DB8B8F
:1036D000002B1DD17B689B8B002B19D17B681B684D
:1036E0001B8A9BB203F00203022B0FD13B8A03F02B
:1036F0000203002B07D17B681B681B889BB203F079
:103700000203022B04D10123FB7401E00123FB74AB
:10371000FB7C002B2ED07B681B689B8A9AB27B684F
:103720001B6822F4185292B29A827B68012283F8B5
:1037300022207B685B6893F90C301846FFF7C0F8CD
:103740007B681B681B883B827B681B683A8A1A80EF
:103750007B689B68002B08D07B689B687A68D06880
:103760007A6811690022984704E07B68283318467C
:10377000FEF75AFC00BF1837BD4680BD80B586B045
:1037800000AFF860B9607A60FB687B61BB68012BB1
:1037900002D0022B07D00DE07B691B6943F00402C5
:1037A0007B691A610DE07B691B6943F010027B693C
:1037B0001A6106E07B691B6943F040027B691A616C
:1037C00000BF7B699B68002B08D07B699B687A6986
:1037D000D0687A6911690022984704E07B69283330
:1037E0001846FEF721FC00BF1837BD4680BD80B5E6
:1037F00086B000AFF860B9607A607B687B61BB68B7
:10380000012B02D0022B07D00DE07B691B6943F02E
:1038100008027B691A610DE07B691B6943F0200295
:103820007B691A6106E07B691B6943F080027B6952
:103830001A6100BF7B699B68002B08D07B699B687D
:103840007A69D0687A6911690022984704E07B6937
:1038500028331846FEF7E8FB00BF1837BD4680BD89
:1038600080B500AF034B1B691846FFF7A2FE00BFEF
:1038700080BD00BF0001042080B500AF034B5B6A30
:103880001846FFF796FE00BF80BD00BF0001042070
:1038900080B500AF034B9B6B1846FFF78AFE00BF55
:1038A00080BD00BF0001042080B483B000AF054B91
:1038B0001B697B607B6800229A8300BF0C37BD4682
:1038C00080BC70470001042080B483B000AF0F4B70
:1038D0001B697B607B680022DA837B681B689B8B9B
:1038E0009AB27B681B6822F0070292B29A837B68C7
:1038F0001B689B8A9AB27B681B6842F4005292B2A2
:103900009A8200BF0C37BD4680BC7047000104207E
:1039100080B483B000AF054B5B6A7B607B6800229C
:103920009A8300BF0C37BD4680BC7047000104205D
:1039300080B483B000AF0F4B5B6A7B607B68002272
:10394000DA837B681B689B8B9AB27B681B6822F0CA
:10395000070292B29A837B681B689B8A9AB27B6843
:103960001B6842F4005292B29A8200BF0C37BD46E7
:1039700080BC70470001042080B483B000AF054BC9
:103980009B6B7B607B6800229A8300BF0C37BD462F
:1039900080BC70470001042080B483B000AF0F4B9F
:1039A0009B6B7B607B680022DA837B681B689B8B48
:1039B0009AB27B681B6822F0070292B29A837B68F6
:1039C0001B689B8A9AB27B681B6842F4005292B2D1
:1039D0009A8200BF0C37BD4680BC704700010420AE
:1039E00080B483B000AF0346FB7197F90730002B1A
:1039F0000BDBFB7903F01F02064997F907305B09DF
:103A0000012000FA02F241F8232000BF0C37BD4626
:103A100080BC704700E100E080B483B000AF034693
:103A2000FB7197F90730002B10DBFB7903F01F02C5
:103A3000094997F907305B09012000FA02F22033A7
:103A400041F82320BFF34F8FBFF36F8F00BF0C37B8
:103A5000BD4680BC704700BF00E100E080B584B087
:103A600000AFB9607A601A460346FB731346BB7316
:103A7000FB7B2549BA6841F82320FB7B23497A6800
:103A800041F82320BB7B002B06D0FB7B204AD3567A
:103A90001846FFF7A5FF05E0FB7B1D4AD3561846E5
:103AA000FFF7BAFFFA7BFB7B1A4951F823301A491A
:103AB00031F812201A81FA7BFB7B164951F823302A
:103AC000164931F812201A80FA7BFB7B114951F814
:103AD0002330134931F812209A82FA7BFB7B0D497F
:103AE00051F823300F4931F812201A84FA7BFB7BFE
:103AF000084951F823300C4931F812209A840023E8
:103B000018461037BD4680BDFC1C0420081D04204B
:103B100044CD0100640104203C0104204401042040
:103B20004C010420540104205C01042080B584B0C1
:103B300000AF03463960FB71FB792E4A52F82330FF
:103B40003A6892881A80FB792A4A52F823303A68F8
:103B5000D2889A82FB794021184600F09BF80346F0
:103B6000002B01D0062340E0FB79224A52F8233093
:103B70001B89FB81FB8903F4C043FB813B689B7875
:103B80009AB2FB891343FB813B68DB789BB25B01F4
:103B90009AB2FB891343FB813B685B78002B03D00F
:103BA000FB8943F00803FB813B681B78002B03D0A3
:103BB000FB8943F00403FB813B681B7A002B03D095
:103BC000FB8943F08003FB813B685B7A002B05D0C7
:103BD000FB896FEA43436FEA5343FB81FB79054A54
:103BE00052F82330FA891A81002318461037BD464F
:103BF00080BD00BF6401042080B582B000AF0346E1
:103C00000A46FB711346BB71FB794021184600F050
:103C100041F80346002B01D006231FE0FB79114A2F
:103C200052F823301B899AB2FB790E4951F82330A0
:103C300022F0100292B21A81BB79002B0DD0FB79D1
:103C4000084A52F823301B899AB2FB79054951F88A
:103C5000233042F0100292B21A810023184608372E
:103C6000BD4680BD6401042080B483B000AF03462C
:103C70003960FB71FB79064A52F823309B889AB26F
:103C80003B681A80002318460C37BD4680BC70473D
:103C90006401042080B485B000AF03460A46FB717E
:103CA0001346BB800023FB810FE0FB790C4A52F8DE
:103CB00023309B8B9AB2BB8813409BB2002B01D15F
:103CC000002307E0FB890133FB81FB89B3F57A7F91
:103CD000EBD3062318461437BD4680BC704700BF9F
:103CE0006401042080B584B000AF0346FB71FB790A
:103CF0001A4A52F823309B8BFB81FB79184A52F801
:103D00002330002B1FD0FB8903F00103002B0AD0C6
:103D1000FB79134A52F82330FA79124951F82200FC
:103D2000002201219847FB8903F00203002B0AD0EF
:103D3000FB790B4A52F82330FA790A4951F82200EC
:103D4000002202219847FB79044A52F823300322CB
:103D50009A8100BF1037BD4680BD00BF64010420BA
:103D6000FC1C0420081D042080B500AF0020FFF7D4
:103D7000B9FF00BF80BD80B500AF0120FFF7B2FFE3
:103D800000BF80BD80B500AF0220FFF7ABFF00BFD2
:103D900080BD000080B483B000AF0346FB7197F98B
:103DA0000730002B0BDBFB7903F01F02064997F964
:103DB00007305B09012000FA02F241F8232000BF1E
:103DC0000C37BD4680BC704700E100E080B483B092
:103DD00000AF0346FB7197F90730002B10DBFB792E
:103DE00003F01F02094997F907305B09012000FA27
:103DF00002F2203341F82320BFF34F8FBFF36F8FC0
:103E000000BF0C37BD4680BC704700BF00E100E03A
:103E100080B483B000AF0346FB7197F90730002BE5
:103E20000CDBFB7903F01F02074997F907305B09A8
:103E3000012000FA02F2603341F8232000BF0C3762
:103E4000BD4680BC704700BF00E100E080B588B08F
:103E500000AFF860B9607A60FB68BB61BB695B6A00
:103E6000DB6A1B697B610023FB61BB68012B02D00D
:103E7000022B05D009E0FB6943F48073FB6109E084
:103E8000FB6943F48063FB6104E0FB6943F4805306
:103E9000FB6100BF7B691B68002B13D07B695B7BD8
:103EA000002B0FD0BB699A69FB691A43BB699A6101
:103EB0007B6900221A73BB695B6A00221946B869E4
:103EC00000F067FEBB699A69FB691A43BB699A6196
:103ED000BB695B6A00221946B86900F05AFE00BF50
:103EE0002037BD4680BD80B588B000AFF860B960AE
:103EF0007A60FB68BB61BB691B6ADB6A1B697B611B
:103F00000023FB61BB68012B02D0022B05D009E026
:103F1000FB6943F40073FB6109E0FB6943F4006350
:103F2000FB6104E0FB6943F40053FB6100BF7B6964
:103F30001B68002B13D07B695B7B002B0FD0BB6908
:103F40009A69FB691A43BB699A617B6900221A73FB
:103F5000BB691B6A01221946B86900F01AFEBB69E9
:103F60009A69FB691A43BB699A61BB691B6A0122A2
:103F70001946B86900F00DFE00BF2037BD4680BD70
:103F800080B586B000AFF8607A603B600B46FB728C
:103F90000023FB823B6A00221A607B683B613A681F
:103FA0000021786812F070F8FB681B016E4A1A4411
:103FB0003B695A606C4AFB681B01134408331A685A
:103FC0003B699A603B69FA7A1A707B6830337B6090
:103FD000FCF75CF9FB7A012B3CD03B697A681A62EA
:103FE0003B691B6A002283F834203B691A6A3B69EB
:103FF0001B6A9A623B691A6A3B691B6A1A633B69CE
:104000001A6A3B691B6ADA623B691B6A0022DA633F
:104010003B691B6A554A9A633B691A6A3B691B6A8A
:1040200014321A613B691A6A3B691B6A5A623B691E
:104030005B681B783A694E491846FCF76FF90346EE
:10404000002B04D0386900F09BF80F2387E07B68D1
:1040500040337B60FB7A002B39D03B697A685A6227
:104060003B695B6A002283F834203B695A6A3B69EA
:104070005B6A9A623B695A6A3B695B6A1A633B698D
:104080005A6A3B695B6ADA623B695B6A0022DA63FF
:104090003B695B6A374A9A633B695A6A3B695B6A68
:1040A00014321A613B695A6A3B695B6A5A623B691E
:1040B0005B685B783A6930491846FCF72FF903468C
:1040C000002B04D0386900F05BF80F2347E0F96853
:1040D000386900F007FE3B699B681B8C9BB203F0BC
:1040E0000103002B14BF01230023DAB23B6983F8DC
:1040F0002D203B699B681B8C9BB29B119BB203F0EC
:104100000303FB82FB8A1D4AD25C3B6983F82E20A5
:104110003B6A3A691A60144AFB681B0113440C336A
:104120003A691A603B695B6893F904301846FFF7F7
:104130006FFE3B695B6893F904301846FFF72AFE6F
:104140003B695B6893F902301846FFF723FE3B6931
:104150005B6893F903301846FFF71CFE00231846EE
:104160001837BD4680BD00BF700104204D420000DD
:10417000E73E0000B54300004D3E000058CD010071
:1041800080B582B000AF78607B689B6800229A801F
:104190007B685B6893F903301846FFF717FE7B686E
:1041A0005B6893F902301846FFF710FE7B685B6886
:1041B00093F904301846FFF709FE7B685B6800221C
:1041C000DA60002318460837BD4680BD80B584B04C
:1041D00000AFF860B9607A60FB70FB681B6A9B6A8D
:1041E000BA681A60FB681B6A9B6A7A685A60FB6847
:1041F0001B6A9B6A00229A60FB681B6A9B6A012209
:104200001A73FB681B6A9B6AFA785A73FB681B6A0D
:104210009A6AFB681B6A12699A62FB681B6A93F8C8
:104220003430002B0DD1FB681B6A022283F8342046
:10423000FB681B6A9B6BFA68126AD26A1146F868BF
:104240009847002318461037BD4680BD80B483B020
:1042500000AF786039603B685B7B002B56D07B6891
:104260005B681B781946314A01238B40C2F8143829
:104270007B685B681B7819462C4A01238B4093624C
:104280007B685B681B781946284A01238B40536280
:104290007B685B681B781946244A01238B40536373
:1042A0003B681B681A463B685B681A44204B1968D8
:1042B0007B685B681B781B010B44013A1A607B68C2
:1042C0009B6819461A4B1A687B685B681B781B0150
:1042D00013440A465A603B685B68013B1B01144A61
:1042E00011687A685268127812010A4443F0404318
:1042F00043F0010393607B689B689B889AB27B685C
:104300009B6842F0100292B29A8009E07B689B6839
:104310009B889AB27B689B6842F0020292B29A80B4
:1043200000BF0C37BD4680BC704700BF0000014095
:1043300034CD010080B584B000AFF860B9607A6018
:10434000FB70FB685B6A9B6ABA681A60FB685B6A11
:104350009B6A7A685A60FB685B6A9B6A00229A6073
:10436000FB685B6A9B6A01221A73FB685B6A9B6A43
:10437000FA785A73FB685B6A9A6AFB685B6A12692F
:104380009A62FB685B6A93F83430002B0DD1FB68AE
:104390005B6A022283F83420FB685B6A9B6BFA68D5
:1043A000526AD26A1146F8689847002318461037B7
:1043B000BD4680BD80B483B000AF786039603B6893
:1043C0005B7B002B56D07B685B685B781946314A73
:1043D00001238B40C2F81C387B685B685B78194608
:1043E0002C4A01238B4093627B685B685B7819469B
:1043F000284A01238B4053627B685B685B781946CF
:10440000244A01238B4053637B689B681946224BE7
:104410001A687B685B685B781B0113440A461A6064
:104420003B681B681A463B685B681A441A4B19685C
:104430007B685B685B781B010B44013A5A603B6800
:104440005B68013B1B01144A11687A685268527814
:1044500012010A4443F0406343F0010393607B6818
:104460009B689B889AB27B689B6842F0200292B25C
:104470009A8009E07B689B689B889AB27B689B68FE
:1044800042F0010292B29A8000BF0C37BD4680BC58
:10449000704700BF0000014034CD010080B584B0FA
:1044A00000AFF860B9607A60FB70FB681B6A01229C
:1044B00083F83420FB681B6A9B6ABA681A60FB6841
:1044C0001B6A9B6A7A685A60FB681B6A9B6A0022B7
:1044D0009A60FB681B6A9B6A01221A73FB681B6A5D
:1044E0009B6AFA785A73FB681B6A9A6AFB681B6AB4
:1044F00012699A62FB681B6A9B6BFA68126AD26A3D
:104500001146F8689847FB681B6ABA691946F8684B
:1045100000F046F8034618461037BD4680BD80B50A
:1045200084B000AFF860B9607A60FB70FB685B6ACA
:10453000012283F83420FB685B6A9B6ABA681A60C0
:10454000FB685B6A9B6A7A685A60FB685B6A9B6A75
:1045500000229A60FB685B6A9B6A01221A73FB68FF
:104560005B6A9B6AFA785A73FB685B6A9A6AFB68B3
:104570005B6A12699A62FB685B6A9B6BFA68526AB3
:10458000D26A1146F8689847FB685B6ABA691946AF
:10459000F86800F005F8034618461037BD4680BDA0
:1045A00080B586B000AFF860B9607A60BB683C3314
:1045B000002219460020FDF799FC0346FB75FB7DA0
:1045C000002B01D001231FE0BB681B6B00221A6087
:1045D000BB681B6B1A69BB681A63BB681B6B1B68E3
:1045E000002B03D1BB68002283F83420FB689B6951
:1045F000002B08D0FB689A697B681A60FB68002270
:104600009A610D2300E0002318461837BD4680BD8F
:1046100080B485B000AFF860B9607A60FB68BA68B2
:10462000DA60FB687A681A61002318461437BD46C1
:1046300080BC704780B485B000AF786008461146F2
:104640001A460346FB700B46BB7013467B707B68B3
:104650009B689B899BB223F00F03FB817A78BB7820
:104660001343DAB2FB781343DBB29AB2FB891343EC
:10467000FB817B689B68FA899A810023184614376E
:10468000BD4680BC704780B485B000AFF860084676
:1046900011461A4603467B810B467B721346FB800C
:1046A000FB689B687A891A857B7A9BB2DB029AB297
:1046B000FB8813439BB2FA6892686FEA43436FEA40
:1046C00053439BB29384FB689B683A7E92B29A856F
:1046D000002318461437BD4680BC704780B582B0B1
:1046E00000AF054BDB687B60786800F007F800BF1F
:1046F0000837BD4680BD00BF7001042080B58EB074
:1047000002AF78607B689B681B899BB203F00E0345
:104710000C2B00F26C8101A252F823F0114800002A
:10472000EF49000051470000EF4900006D470000CD
:10473000EF4900007D470000EF490000EF4900000D
:10474000EF490000EF490000EF4900005947000021
:10475000786800F0E1F94DE17B689B689B8E9BB225
:10476000DBB21946786800F071F943E17B6893F891
:104770002E301946786800F069F93BE10023FB62AE
:104780007B689B689B8ABB83BB8B03F010039BB247
:10479000002B05D07B689B681B888023FB6209E0A7
:1047A000BB8B03F008039BB2002B03D0FB6A43F0E2
:1047B0001003FB62BB8B03F004039BB2002B03D0FE
:1047C000FB6A43F02003FB62BB8B03F002039BB246
:1047D000002B03D0FB6A43F04003FB62FB6A002B13
:1047E00000F007817B681B7D83F00103DBB2002BA7
:1047F00000F0FF807B689A69FB6A1A437B689A61C4
:104800007B685B6A04221946786800F0C2F9F0E020
:104810000023BB627B689B68B3F844309BB203F013
:104820000F037B837B689B68B3F840309BB203F037
:1048300001033B837B8B002B00F0C9803B8B002B5B
:1048400000F0C58007F10C0319460020FDF7F2F9CE
:104850000346002B01D00023FB607B689B68B3F804
:1048600048309BB21B037B617B689B68B3F8443084
:104870009BB21B099BB21A467B6913437B617B8BFE
:1048800003F00103002B6FD07B689B689B8C9BB26D
:1048900003F40043B3F5004F4DD1002387F82730D0
:1048A0004FF400633B610123FB837B693F2B06D8F8
:1048B0007B695B02DA083B69D31A3B6228E07B69BB
:1048C0007F2B09D87B691B02DA083B69D31A3B624C
:1048D000012387F827301BE07B69FF2B09D87B6910
:1048E000DB01DA083B69D31A3B62022387F82730E1
:1048F0000EE07B691B0AFB837B699A01FB8BDB0063
:10490000B2FBF3F23B69D31A3B62032387F82730EB
:104910003B6A9AB2F98B97F827300093134601222D
:104920007868FFF7B0FEFB68DA007B69B2FBF3F250
:104930007B689A6206E0FB68DA007B69B2FBF3F2FF
:104940007B689A627B68DB68002B3DD07B6893F8BC
:104950002C30002B38D07B68DB687A6810697A6865
:10496000926A032198472FE07B8B03F00203002B10
:1049700003D0BB6A43F40073BB627B8B03F0040378
:10498000002B03D0BB6A43F48073BB627B8B03F0C4
:104990000803002B03D0BB6A43F48063BB627B68CF
:1049A000DB68002B0DD07B685B6A93F83430022BF8
:1049B00007D17B68DB687A681069BA6A0521984775
:1049C00002E07B68BA6ADA617B689B681B887B6857
:1049D0009B68B3F840309AB27B689B6822F007026C
:1049E00092B2A3F840207B6800221A7502E000BF53
:1049F00000E000BF00BF3037BD4680BD80B582B04B
:104A000000AF074BDB687B607B681B6A012219469D
:104A1000786800F0BEF800BF0837BD4680BD00BF13
:104A20007001042080B582B000AF074BDB687B606B
:104A30007B685B6A00221946786800F0AAF800BF1C
:104A40000837BD4680BD00BF7001042080B586B028
:104A500000AF78600B46FB707B685B6ADB6A7B614A
:104A60007B691B683B613B69002B05D07B691B7B25
:104A7000002B01D0012300E00023FB73FB7B03F03C
:104A80000103FB73FB7B002B28D00EE07B689B6847
:104A90001B8899B27B699B683A691344CAB21A7041
:104AA0007B699B685A1C7B699A60FB785A1EFA7076
:104AB000002B05D07B699A687B695B689A42E5D3D5
:104AC0007B699A687B695B689A4221D17B685B6AE3
:104AD00000221946786800F05CF819E07B68DB6812
:104AE000002B06D07B68DB687A68106900220221FF
:104AF00098477B691B68002B0AD17B691B7B83F07D
:104B00000103DBB2002B03D07B689B681B8800BFCE
:104B100000BF1837BD4680BD80B584B000AF786057
:104B20007B681B6ADB6A1B68002B2ED07B681B6AC4
:104B3000DB6A1B7B002B28D07B681B6ADB6A1B6847
:104B4000FB607B681B6ADB6A9B68FA6813441B780E
:104B5000DAB27B689B6892B21A807B681B6ADB6A58
:104B60009A6801329A607B681B6ADB6A9A687B6884
:104B70001B6ADB6A5B689A4207D37B681B6A012267
:104B80001946786800F005F800BF00BF1037BD4631
:104B900080BD80B586B000AFF860B9601346FB7188
:104BA000BB68DB6A00221A73BB68DB6A1A69BB68E0
:104BB000DA62FB79012B0AD1FB689B689B889AB269
:104BC000FB689B6822F0120292B29A801BE0FB689D
:104BD0009B689B889AB2FB689B6822F0200292B285
:104BE0009A80FB6893F82D3083F00103DBB2002B31
:104BF00009D0FB689B689B889AB2FB689B6822F08F
:104C0000010292B29A80FB68DB68002B38D0BB6847
:104C100093F83430022B33D1FB689B697B61FB68CE
:104C200000229A61BB681B6B1B683B61BB681B6BF6
:104C300000221A60BB681B6B1A69BB681A63BB68E9
:104C40001B6B1B68002B03D1BB68002283F8342048
:104C50007B69002B07D0FB68DB68FA6810697A690A
:104C60000421984706E0FB68DB68FA681069F97967
:104C70003A699847BB683C331846FDF7D5F920E000
:104C8000FB79012B0ED100BFFB689B689B8A9BB20E
:104C900003F04003402BF7D1FB689B681B8F9BB24E
:104CA000002BF1D1BB681B6B1B691B68002B03D168
:104CB000BB68002283F83420BB683C331846FDF7FC
:104CC000B3F9BB68DB6A1B7B002B06D0BB689B6B10
:104CD000BA68D26A1146F868984700BF1837BD46CF
:104CE00080BD000080B485B000AF786039603A685C
:104CF0001346DB009B1A5B00154A1344FB607B687C
:104D00009B68FA6812889A817B689B68FA68528867
:104D10001A857B689B68FA6892889A847B689B688E
:104D2000FA68D2889A857B689B68FA6812891A8427
:104D30007B689B68FA6852899A877B689B68FA68E7
:104D400092899A8000BF1437BD4680BC704700BF6F
:104D500048CD010080B483B000AF0346FB7197F9E2
:104D60000730002B0BDBFB7903F01F02064997F994
:104D700007305B09012000FA02F241F8232000BF4E
:104D80000C37BD4680BC704700E100E080B483B0C2
:104D900000AF0346FB7197F90730002B10DBFB795E
:104DA00003F01F02094997F907305B09012000FA57
:104DB00002F2203341F82320BFF34F8FBFF36F8FF0
:104DC00000BF0C37BD4680BC704700BF00E100E06B
:104DD00080B582B000AF78603960084B1B68002B4B
:104DE00007D13A680021786811F04EF9034A7B68D0
:104DF0001360002318460837BD4680BD141D0420EB
:104E000080B400AF034B00221A6000231846BD4651
:104E100080BC7047141D042080B58AB000AF0346E3
:104E20000A46FB711346BB710023FB61FB799B00B3
:104E30000F2202FA03F3BB61FB79052B08D1BB7982
:104E40005B0543F480137B62042387F823300EE074
:104E5000BB7943F00803DBB21A46FB799B0002FAE8
:104E600003F37B62FB790133DBB287F82330EFF386
:104E70001083FB60FB68FB6172B60F4B1B687B61A4
:104E8000BB69DB437A6913407B617A697B6A1343B0
:104E90007B61094A7B691360FB693B613B6983F372
:104EA000108897F923301846FFF754FF002318465F
:104EB0002837BD4680BD00BF80C0044080B588B0A3
:104EC00000AF0346FB710023BB61FB79052B02D1C8
:104ED0000423FB7703E0FB790133DBB2FB7797F91F
:104EE0001F301846FFF752FFFB799B000F2202FA92
:104EF00003F37B61EFF31083BB60BB68BB6172B6E9
:104F00000A4B1B683B617B69DB433A6913403B6199
:104F1000064A3B691360BB69FB60FB6883F310883A
:104F2000002318462037BD4680BD00BF80C0044026
:104F300080B489B000AF0346B9607A60FB73002388
:104F4000FB61EFF310837B617B69FB6172B60C4BF5
:104F50001A68FB7BDB001344BA681A60084B1A68B6
:104F6000FB7BDB0013447A685A60FB69BB61BB6959
:104F700083F31088002318462437BD4680BC704751
:104F8000141D042080B582B000AF0346FB71FB798D
:104F90000F4A012101FA03F313610E4B1A68FB79E2
:104FA000DB0013441B68002B0ED00A4B1A68FB79F8
:104FB000DB0013441B68074A1168FA79D2000A44DF
:104FC0005068F9790022984700BF0837BD4680BD78
:104FD00080C00440141D042080B500AF0020FFF7FE
:104FE000D1FF00BF80BD80B500AF0120FFF7CAFF31
:104FF00000BF80BD80B500AF0220FFF7C3FF00BF38
:1050000080BD000080B500AF074B5B6803F0200354
:10501000202B03D10520FFF7B5FF02E00320FFF7A7
:10502000B1FF00BF80BD00BF80C0044080B582B02A
:1050300000AF0A4B7B600A4B3B6007E07A68131DA8
:105040007B603B68191D396012681A603B68054A2D
:105050009342F3D300F076F8FBF7C2F8700A02002F
:10506000000004201412042080B400AFFEE700000A
:1050700080B487B000AF2E4B1B6803F00303032BF3
:1050800050D801A252F823F099500000A15000001E
:10509000A950000011510000264B274A1A603CE03D
:1050A000244B254A1A6038E0214B1B6803F4006347
:1050B000002B02D0204B7B6101E01F4B7B611C4B1E
:1050C000DB6803F01F033B61194BDB68DB0A03F06D
:1050D0000F03FB60164BDB681B0C03F00103BB6086
:1050E000134BDB681B0A03F001037B607A69BB6822
:1050F00002FA03F33A6902FB03F2FB68B2FBF3F234
:105100007B6822FA03F37B610A4A7B69136004E03F
:105110000A4B1B68074A136000BF064B1B68084A0E
:10512000136000E000BF1C37BD4680BC704700BF65
:1051300000C30440181D042080BA8C011C1D0420EB
:10514000201D042080B584B000AF0121062000F0AE
:105150001FF8EFF310837B607B68FB6072B60A4B2D
:105160000A4A9A60084B4FF4E0225A62BFF36F8FED
:10517000BFF34F8FFB68BB60BB6883F3108800BF31
:105180001037BD4680BD00BF00ED00E0000000000C
:1051900080B483B000AF78600B46FB700E4B44F6D2
:1051A0005902DA60FB78002B07D00B4B5A697B68F9
:1051B0005B08094913434B6107E0074B5A697B6859
:1051C0005B08DB43044913404B61002318460C374E
:1051D000BD4680BC704700BF00C0044080B5A2B08F
:1051E00000AF786039600DF0FDFF07F120033B63ED
:1051F00007F12403184607F0C9FF07F1240207F15D
:1052000080031146184608F0EBFCC7F88400D7F875
:105210008430002B02D04FF0FF331FE0D7F88030EE
:10522000DB6818460BF074FAD7F880301B681B68EF
:1052300018460DF069FF0B4BFB60D7F880305B68B8
:105240003B61094B7B610023BB610023FB6107F1DC
:105250000C03012118460BF075F8034618468837F1
:10526000BD4680BD5CCD01001801020080B586B04E
:1052700000AFF8600B467A607B8100233B61FB68DE
:105280001B79002B02D0012B1BD048E07B891946EB
:105290004FF4FF400DF07BFF0346DBB23B747B898C
:1052A0005B00DBB27B74FB681B6807F11001042212
:1052B00018460CF00FFE78617B69002B32D07B69B9
:1052C00041E07B8919464FF4FE400DF060FF034634
:1052D000DBB23B743B7C63F07F03DBB23B747B89C6
:1052E000DBB27B74FB68186807F11001002302220F
:1052F00009F074FC78617B69002B01D07B6922E0A6
:10530000FB68186807F1100102310123022209F03D
:10531000B9FC78617B69002B06D07B6913E04FF004
:10532000FF3310E000BF00E000BFBB7C1B029AB25D
:105330007B681A807B681A88FB7C9BB213439AB205
:105340007B681A80002318461837BD4680BD80B59B
:1053500084B000AF78600B467B8013463B8000230F
:10536000FB607B681B79002B02D0012B23D049E026
:105370007B8819464FF4FF400DF009FF0346DBB26E
:105380003B737B885B00DBB27B733B8819464FF431
:105390007F400DF0FCFE0346DBB2BB733B88DBB203
:1053A000FB737B681B6807F10C01042218460CF0A4
:1053B00091FD034628E07B8819464FF4FE400DF02E
:1053C000E6FE0346DBB23B733B7B63F07F03DBB25D
:1053D0003B737B88DBB27B733B8819464FF47F407D
:1053E0000DF0D5FE0346DBB2BB733B88DBB2FB732B
:1053F0007B68186807F10C010123042209F0EEFB19
:10540000034601E06FF0150318461037BD4680BD16
:1054100080B588B000AFF860084611461A460346CA
:105420007B810B463B811346FB8007F116027B898B
:105430001946F868FFF71AFFF861FB69002B02D0E4
:105440004FF0FF3324E0B7F90630DB431AB2FB8A92
:105450001BB213401BB29BB2FB82FB8818460DF0B7
:1054600079FEB8613A89BB6902FA03F31AB2B7F957
:10547000063013401AB2FB8A1BB213431BB29BB215
:10548000FB82FA8A7B891946F868FFF760FF0346BA
:1054900018462037BD4680BD80B584B000AF786027
:1054A00007F10A031A460F217868FFF7DFFEF8605C
:1054B000FB68002B01D0FB6808E07B891B12DBB284
:1054C00003F00303DAB27B685A71002318461037E1
:1054D000BD4680BD80B584B000AF78604FF4004316
:1054E00001220F217868FFF793FFF860FB68002B1B
:1054F00001D0FB6803E07868FFF7CEFF034618464B
:105500001037BD4680BD80B582B000AF78600B46D5
:10551000FB70FB789AB2012310217868FFF778FFBF
:10552000034618460837BD4680BD80B584B000AF3D
:105530007860396007F10A031A4610217868FFF78E
:1055400095FEF860FB68002B01D0FB6807E07B89C3
:10555000DBB203F00103DAB23B681A70FB6818464D
:105560001037BD4680BD80B582B000AF78600B4675
:10557000FB70FB789AB24FF4706310217868FFF7E4
:1055800047FF034618460837BD4680BD80B584B046
:1055900000AF7860396007F10A031A461021786875
:1055A000FFF764FEF860FB68002B01D0FB6808E0A1
:1055B0007B891B12DBB203F00F03DAB23B681A706F
:1055C000FB6818461037BD4680BD000080B586B028
:1055D00000AF786039607B685B79002B03D07B6813
:1055E0005B79022B18D107F10E031A460F21786858
:1055F000FFF73CFE38613B69002B01D03B692CE092
:10560000FB8903F00203002B02D0164B7B6106E0FE
:105610004FF400437B6102E07B689B697B617A69A0
:105620003B68B2FBF3F37B617B699BB21A460D21A9
:105630007868FFF78CFE38613B69002B01D03B692D
:105640000BE07B691B0C9BB203F07F039BB21A46F5
:105650000E217868FFF77BFE034618461837BD46D3
:1056600080BD00BF40420F0080B586B000AF7860BB
:1056700039607B685B79002B03D07B685B79022BF8
:1056800018D107F10E031A460F217868FFF7EEFDD7
:1056900038613B69002B01D03B6939E0FB8903F09D
:1056A0000203002B02D01C4B7B6106E04FF4004349
:1056B0007B6102E07B689B697B6107F10E031A4600
:1056C0000D217868FFF7D2FD38613B69002B01D0CE
:1056D0003B691DE0FB891A463B681A6007F10E031F
:1056E0001A460E217868FFF7C1FD38613B69002B2F
:1056F00001D03B690CE03B681A68FB891B0403F48A
:10570000FE0313437A69B2FBF3F23B681A603B690C
:1057100018461837BD4680BD40420F0080B586B0A0
:1057200000AFF8600B467A60FB7207F112031A466D
:105730001021F868FFF79AFD78617B69002B01D092
:105740007B6943E17B8A1B1203F00F02FB7A9A42CA
:1057500002DA6FF0150339E1FB7A08339BB25B0183
:105760009BB207F112021946F868FFF77FFD7861D6
:105770007B69002B01D07B6928E17B681B78002BBB
:1057800005D07B8A43F480439BB27B8204E07B8A12
:1057900023F480439BB27B82FB7A08339BB25B018C
:1057A0009BB27A8A1946F868FFF7D1FD78617B6968
:1057B000002B01D07B6909E17B689B781A467B68E6
:1057C0005B789B0002FA03F39BB27B82FB7A9BB26D
:1057D0005B019BB203F581739BB27A8A1946F86824
:1057E000FFF7B5FD78617B69002B01D07B69EDE0A7
:1057F000FB7A9BB25B019BB203F2031399B27B6805
:10580000DB789AB24FF4E043F868FFF701FE786165
:105810007B69002B01D07B69D8E07B681B791B0278
:105820001AB27B685B799B011BB213431AB27B6887
:10583000DB79DB001BB213431AB27B689B791BB286
:1058400013431BB29BB27B82FB7A9BB25B019BB280
:1058500003F582739BB27A8A1946F868FFF777FDE1
:1058600078617B69002B01D07B69AFE07B685B7A54
:105870001B011AB27B681B7A1BB213431BB29BB28B
:105880007B82FB7A9BB25B019BB203F20D139BB24E
:105890007A8A1946F868FFF75AFD78617B69002B10
:1058A00001D07B6992E07B689B7A9BB203F007038F
:1058B0009BB27B82FB7A9BB25B019BB203F5887340
:1058C0009BB27A8A1946F868FFF741FD78617B69D7
:1058D000002B01D07B6979E07B68DB7A1B019BB2EE
:1058E00003F4FE639BB27B82FB7A9BB25B019BB2AB
:1058F00003F589739BB27A8A1946F868FFF727FD8A
:1059000078617B69002B01D07B695FE07B685B7B02
:105910001AB27B681B7B1B021BB213431BB29BB2E8
:105920007B82FB7A9BB25B019BB203F205139BB2B5
:105930007A8A1946F868FFF70AFD78617B69002BBF
:1059400001D07B6942E07B68DB7B1AB27B689B7B82
:105950001B021BB213431BB29BB27B82FB7A9BB22E
:105960005B019BB203F583739BB27A8A1946F86890
:10597000FFF7EDFC78617B69002B01D07B6925E0A6
:105980007B681B7C002B02D17B6801221A747B6828
:105990005B7C002B02D17B6801225A747B685B7CA4
:1059A0001AB27B681B7C1B021BB213431BB29BB257
:1059B0007B82FB7A9BB25B019BB203F207139BB223
:1059C0007A8A1946F868FFF7C2FC0346184618376A
:1059D000BD4680BD80B584B000AF786039603A685C
:1059E00000217868FFF742FCF860FB68002B01D0CB
:1059F000FB6807E03B681B88C3F30A039AB23B6865
:105A00001A80002318461037BD4680BD80B58CB083
:105A100000AFF860B96011461A460B46FB71134699
:105A2000BB8000233B85002387F82430FB790121CC
:105A300018460FF0E7FE03463B623B6A002B02D19B
:105A40006FF00B03CAE1002387F825303EE097F999
:105A500025309BB25B019BB203F588739BB207F1C3
:105A600016021946F868FFF701FCF862FB6A002B82
:105A700040F0AF81FB8ADAB297F92530396A0B44DE
:105A800002F00702D2B21A7097F925303A6A13442D
:105A90001B789AB23B8D13443B85BA8897F9253021
:105AA00042FA03F303F00103002B08D097F92530E5
:105AB0003A6A13441B789AB23B8D13443B8597F99D
:105AC0002530DBB20133DBB287F8253097F925208A
:105AD000FB799A42BBDB3B8D03F001039BB2002BA9
:105AE00002D03B8D01333B853B8D5B089BB202218D
:105AF00018460FF087FE0346FB61FB69002B03D1BC
:105B00006FF00B03FB6265E13B8D012118460FF03E
:105B100079FE0346BB61BB69002B03D16FF00B0319
